:100000000C9435000C945D000C945D000C945D0024
:100010000C945D000C945D000C945D000C945D00EC
:100020000C945D000C945D000C945D000C945D00DC
:100030000C945D000C945D000C945D000C945D00CC
:100040000C94CE010C945D000C943E020C941802AA
:100050000C945D000C945D000C945D000C945D00AC
:100060000C945D000C945D00160411241FBECFEFAC
:10007000D8E0DEBFCDBF11E0A0E0B1E0E2E5FDE0F9
:1000800002C005900D92A232B107D9F721E0A2E299
:10009000B1E001C01D92A23DB207E1F710E0C5E357
:1000A000D0E004C02197FE010E94A106C433D1070D
:1000B000C9F70E9470020C94A7060C94000087E414
:1000C00080937C0080917A00806480937A00809194
:1000D0007A0086FDFCCF8091780090917900089598
:1000E000AF92BF92CF92DF92EF92FF920F931F9346
:1000F000CF93DF936C017B018B01040F151FEB0184
:100100005E01AE18BF08C017D10759F06991D6013A
:10011000ED91FC910190F081E02DC6010995892BAC
:1001200079F7C501DF91CF911F910F91FF90EF906B
:10013000DF90CF90BF90AF900895FC01538D448D18
:10014000252F30E0842F90E0821B930B541710F082
:10015000CF96089501970895FC01918D828D98178F
:1001600061F0A28DAE0FBF2FB11D5D968C91928D67
:100170009F5F9F73928F90E008958FEF9FEF089598
:10018000FC01918D828D981731F0828DE80FF11D61
:10019000858D90E008958FEF9FEF0895FC01918D7C
:1001A000228D892F90E0805C9F4F821B91098F7375
:1001B0009927089585E391E00E94CE0021E0892BE4
:1001C00009F420E0822F089580E090E0892B29F047
:1001D0000E94DA0081110C9400000895FC01A48DA6
:1001E000A80FB92FB11DA35ABF4F2C91848D90E059
:1001F00001968F739927848FA689B7892C93A0893C
:10020000B1898C91837080648C93938D848D9813C5
:1002100006C00288F389E02D80818F7D8083089558
:10022000EF92FF920F931F93CF93DF93EC0181E046
:10023000888F9B8D8C8D98131AC0E889F9898081ED
:1002400085FF15C09FB7F894EE89FF896083E88920
:10025000F98980818370806480839FBF81E090E012
:10026000DF91CF911F910F91FF90EF900895F62E9F
:100270000B8D10E00F5F1F4F0F731127E02E8C8D39
:100280008E110CC00FB607FCFACFE889F98980817E
:1002900085FFF5CFCE010E94EE00F1CFEB8DEC0F84
:1002A000FD2FF11DE35AFF4FF0829FB7F8940B8F9B
:1002B000EA89FB8980818062CFCFCF93DF93EC0105
:1002C000888D8823B9F0AA89BB89E889F9898C913E
:1002D00085FD03C0808186FD0DC00FB607FCF7CFFA
:1002E0008C9185FFF2CF808185FFEDCFCE010E94FA
:1002F000EE00E9CFDF91CF910895FC01019000203D
:10030000E9F73197AF01481B590BBC0185E391E038
:100310000C9470008F929F92AF92BF920F931F9395
:10032000CF93DF93CDB7DEB7A1970FB6F894DEBFBA
:100330000FBECDBF19A2423008F44AE08E010F5D16
:100340001F4F842E912CB12CA12CA50194010E9449
:100350007F06E62FB901CA01EA30F4F4E05DD80166
:10036000EE938D01232B242B252B79F790E080E051
:10037000109719F0CD010E947D01A1960FB6F89457
:10038000DEBF0FBECDBFDF91CF911F910F91BF9008
:10039000AF909F908F900895E95CE1CF1F920F92EC
:1003A0000FB60F9211242F933F938F939F93AF9388
:1003B000BF938091310190913201A0913301B091AE
:1003C00034013091300123E0230F2D3758F5019689
:1003D000A11DB11D20933001809331019093320112
:1003E000A0933301B093340180912C0190912D01A1
:1003F000A0912E01B0912F010196A11DB11D8093F6
:100400002C0190932D01A0932E01B0932F01BF9149
:10041000AF919F918F913F912F910F900FBE0F90B1
:100420001F90189526E8230F0296A11DB11DD2CF6B
:100430001F920F920FB60F9211242F933F934F9359
:100440005F936F937F938F939F93AF93BF93EF933C
:10045000FF9385E391E00E94EE00FF91EF91BF9141
:10046000AF919F918F917F916F915F914F913F914C
:100470002F910F900FBE0F901F9018951F920F9203
:100480000FB60F9211242F938F939F93EF93FF93A7
:10049000E0914501F09146018081E0914B01F0919E
:1004A0004C0182FD1BC0908180914E018F5F8F7344
:1004B00020914F01821741F0E0914E01F0E0EB5C9A
:1004C000FE4F958F80934E01FF91EF919F918F91F9
:1004D0002F910F900FBE0F901F9018958081F4CF31
:1004E000789484B5826084BD84B5816084BD85B50F
:1004F000826085BD85B5816085BD80916E0081601B
:1005000080936E00109281008091810082608093C0
:1005100081008091810081608093810080918000C2
:100520008160809380008091B10084608093B100ED
:100530008091B00081608093B00080917A008460E7
:1005400080937A0080917A00826080937A00809113
:100550007A00816080937A0080917A00806880932D
:100560007A001092C100E0914501F091460182E0CD
:100570008083E0914101F09142011082E0914301BA
:10058000F09144018FEC808310924D01E09149017C
:10059000F0914A0186E08083E0914701F0914801A3
:1005A000808180618083E0914701F09148018081E2
:1005B00088608083E0914701F091480180818068E4
:1005C0008083E0914701F091480180818F7D808395
:1005D00000E010E0C1E0D0E080912A0190912B0171
:1005E000009761F00197C9F101151105A9F30E9467
:1005F000DA00882389F30E940000EECF84E6A82E5B
:10060000B12CC12CD12C76010E945F00BC01990F46
:10061000880B990B0E9458059B01AC01C701B601DC
:100620000E9444046B017C0181E0A81AB10861F7C3
:1006300020E030E048EC52E4C701B6010E94B50466
:1006400060932601709327018093280190932901DC
:10065000D0932B01C0932A01C7CF809026019090A0
:100660002701A0902801B090290126E636E646E64B
:100670005FE36091220170912301809124019091A8
:1006800025010E940D066B017C010E945F00BC01E8
:10069000990F880B990B0E945805A50194010E949F
:1006A000430420E030E044EB52E40E940D0620E0D9
:1006B00030E044E652E40E94B50420ED3CEC4CEC02
:1006C0005DE30E940D06A70196010E9444046B01A0
:1006D0007C014B015C01C0922201D0922301E09287
:1006E0002401F0922501AC019B010E947A06882327
:1006F00049F082E191E00E947D018EE191E00E944B
:100700007D0172CF26013701E89477F82FEF3FEF94
:100710004FE75FE7C301B2010E947A0681110DC065
:100720002FEF3FEF4FE75FE7C301B2010E94B00434
:1007300018161CF486E191E0DECF2FEF3FEF4FE774
:100740005FE4C701B6010E94080618161CF48AE18E
:1007500091E0D1CF2FEF3FEF4FE75FECC701B6013C
:100760000E94B00487FDF3CF20E030E0A901C7016B
:10077000B6010E94B00487FF0BC06DE285E391E0F3
:100780000E94100146015701B7FAB094B7F8B0942F
:100790002AE037ED43EA5BE3C501B4010E9444045B
:1007A0004B015C010E9427056B017C010E945605EC
:1007B0009B01AC01C501B4010E9443044B015C01E3
:1007C0004AE0C701B6010E948A016EE285E391E02A
:1007D0000E94100120E030E040E251E4C501B40184
:1007E0000E940D064B015C010E9427056B01F12C54
:1007F000E12C4AE0C701B6010E948A01C701B60197
:100800000E9456059B01AC01C501B4010E9443043E
:1008100020E030E040E251E40E940D060E942705EE
:1008200090E080E04AE00E948A0167CFE5E3F1E0D2
:100830001382128288EE93E0A0E0B0E08483958377
:10084000A683B78384E091E09183808385EC90E078
:100850009587848784EC90E09787868780EC90E08A
:10086000918B808B81EC90E0938B828B82EC90E07B
:10087000958B848B86EC90E0978B868B118E128EF5
:10088000138E148E08955058BB27AA270E945B042C
:100890000C94CE050E94C00538F00E94C70520F0D8
:1008A00039F49F3F19F426F40C94BD050EF4E0953D
:1008B000E7FB0C94B705E92F0E94DF0558F3BA1740
:1008C000620773078407950720F079F4A6F50C9466
:1008D00001060EF4E0950B2EBA2FA02D0B01B901E5
:1008E00090010C01CA01A0011124FF27591B99F0A6
:1008F000593F50F4503E68F11A16F040A22F232FB2
:10090000342F4427585FF3CF469537952795A79501
:10091000F0405395C9F77EF41F16BA0B620B730BA8
:10092000840BBAF09150A1F0FF0FBB1F661F771F19
:10093000881FC2F70EC0BA0F621F731F841F48F4CE
:10094000879577956795B795F7959E3F08F0B0CF57
:100950009395880F08F09927EE0F9795879508953E
:100960000E94930508F481E008950E94C9040C9444
:10097000CE050E94C70558F00E94C00540F029F43A
:100980005F3F29F00C94B70551110C9402060C94AA
:10099000BD050E94DF0568F39923B1F3552391F358
:1009A000951B550BBB27AA2762177307840738F0DE
:1009B0009F5F5F4F220F331F441FAA1FA9F335D03B
:1009C0000E2E3AF0E0E832D091505040E695001CEF
:1009D000CAF72BD0FE2F29D0660F771F881FBB1FA9
:1009E000261737074807AB07B0E809F0BB0B802D87
:1009F000BF01FF2793585F4F3AF09E3F510578F0B3
:100A00000C94B7050C9402065F3FE4F3983ED4F3D0
:100A1000869577956795B795F7959F5FC9F7880F86
:100A2000911D9695879597F90895E1E0660F771FD8
:100A3000881FBB1F621773078407BA0720F0621B69
:100A4000730B840BBA0BEE1F88F7E09508950E9494
:100A5000E70588F09F5798F0B92F9927B751B0F064
:100A6000E1F0660F771F881F991F1AF0BA95C9F732
:100A700014C0B13091F00E940106B1E008950C94C9
:100A80000106672F782F8827B85F39F0B93FCCF37C
:100A9000869577956795B395D9F73EF490958095AF
:100AA000709561957F4F8F4F9F4F0895E89409C0CF
:100AB00097FB3EF490958095709561957F4F8F4F91
:100AC0009F4F9923A9F0F92F96E9BB279395F695A7
:100AD000879577956795B795F111F8CFFAF4BB0F25
:100AE00011F460FF1BC06F5F7F4F8F4F9F4F16C089
:100AF000882311F096E911C0772321F09EE8872F13
:100B0000762F05C0662371F096E8862F70E060E0CE
:100B10002AF09A95660F771F881FDAF7880F969547
:100B2000879597F90895990F0008550FAA0BE0E8EB
:100B3000FEEF16161706E807F907C0F0121613069F
:100B4000E407F50798F0621B730B840B950B39F4DF
:100B50000A2661F0232B242B252B21F408950A2645
:100B600009F4A140A6958FEF811D811D089597F985
:100B70009F6780E870E060E008959FEF80EC089543
:100B800000240A941616170618060906089500246C
:100B90000A9412161306140605060895092E0394E6
:100BA000000C11F4882352F0BB0F40F4BF2B11F45A
:100BB00060FF04C06F5F7F4F8F4F9F4F089557FDB9
:100BC0009058440F551F59F05F3F71F04795880FBB
:100BD00097FB991F61F09F3F79F087950895121652
:100BE00013061406551FF2CF4695F1DF08C01616FE
:100BF00017061806991FF1CF8695710561050894AF
:100C00000895E894BB2766277727CB0197F90895C5
:100C10000E94930508F48FEF08950E9420060C941B
:100C2000CE050E94C00538F00E94C70520F095232C
:100C300011F00C94B7050C94BD0511240C94020618
:100C40000E94DF0570F3959FC1F3950F50E0551F8B
:100C5000629FF001729FBB27F00DB11D639FAA2711
:100C6000F00DB11DAA1F649F6627B00DA11D661F60
:100C7000829F2227B00DA11D621F739FB00DA11D81
:100C8000621F839FA00D611D221F749F3327A00D3B
:100C9000611D231F849F600D211D822F762F6A2FD7
:100CA00011249F5750409AF0F1F088234AF0EE0F3C
:100CB000FF1FBB1F661F771F881F91505040A9F769
:100CC0009E3F510580F00C94B7050C9402065F3FDF
:100CD000E4F3983ED4F3869577956795B795F795A5
:100CE000E7959F5FC1F7FE2B880F911D969587951D
:100CF00097F908950E949305880B990B0895A1E236
:100D00001A2EAA1BBB1BFD010DC0AA1FBB1FEE1F85
:100D1000FF1FA217B307E407F50720F0A21BB30BD0
:100D2000E40BF50B661F771F881F991F1A9469F74C
:100D300060957095809590959B01AC01BD01CF01A8
:100D40000895EE0FFF1F0590F491E02D0994F8949B
:020D5000FFCFD3
:100D520000000000100170009D005D01CE00AC009B
:100D6200C0006E616E00696E66006F7666000D0AE5
:020D720000007F
:00000001FF
